:020000040800F2
:10000000D0040020DD010008230E0008850D000843
:10001000210E0008E9020008591000080000000045
:10002000000000000000000000000000270E000893
:10003000EB02000800000000250E0008290E000851
:10004000F7010008F7010008F7010008F7010008B0
:10005000F7010008F7010008F7010008F7010008A0
:10006000F7010008F7010008F7010008F701000890
:10007000F7010008F7010008F7010008F701000880
:10008000F7010008F7010008F70100080000000070
:10009000000000000000000000000000F701000860
:1000A000F7010008F7010008F7010008F701000850
:1000B000000000000000000000000000F701000840
:1000C000F7010008F7010008F7010008F701000830
:1000D000F7010008F7010008F70100080000000020
:1000E000F7010008F7010008000000000000000010
:1000F000000000000000000000000000F701000800
:100100000000000000000000F701000800000000EF
:100110000000000000000000F701000800000000DF
:10012000F7010008F7010008F7010008F7010008CF
:10013000F7010008000000000000000000000000BF
:1001400000000000000000000000000000000000AF
:10015000F7010008F7010008F7010008F70100089F
:10016000000000000000000000000000000000008F
:10017000000000000000000000000000000000007F
:10018000F7010008F701000800000000000000006F
:1001900000000000F701000800000000000000005F
:1001A000000000000000000000000000000000004F
:1001B000000000000000000000000000F70100083F
:1001C000F7010008F7010008DFF80CD000F07AF81A
:1001D0000048004799100008D004002006488047D6
:1001E00006480047FEE7FEE7FEE7FEE7FEE7FEE71C
:1001F000FEE7FEE7FEE7FEE7B10E0008C9010008D2
:100200002DE9F05F0546002092469B46884606464B
:10021000814640241BE0284641464746224600F0DE
:1002200041F853465A46C01A914110D31146184618
:10023000224600F028F82D1A67EB01084F462246A7
:100240000120002100F01FF817EB00094E41201E8D
:10025000A4F10104DFDC484631462A464346BDE8A6
:10026000F09FD2B201E000F8012B491EFBD270478B
:100270000022F6E710B513460A4604461946FFF772
:10028000F0FF204610BD202A04DB203A00FA02F1DC
:10029000002070479140C2F1200320FA03F3194374
:1002A00090407047202A04DB203A21FA02F0002116
:1002B000704721FA02F3D040C2F120029140084376
:1002C00019467047064C074D06E0E06840F0010310
:1002D00094E8070098471034AC42F6D3FFF778FF54
:1002E0007011000890110008FEE7704770B50446D1
:1002F00000F0CCF80546601C02D0044800780444A5
:1003000000F0C4F8401BA042FAD370BD00000020EA
:100310002DE9F84F00224FF0010803254FF00F0E92
:100320000B6808FA02F42340A3426ED14E68012EF6
:1003300005D0022E03D0112E01D0122E12D18668C4
:100340004FEA420C05FA0CF7BE43CF6807FA0CF7E8
:10035000374387604668A6430C79C4F30014944081
:1003600034434460C668570005FA07FC8C6826EAE7
:100370000C06BC403443C4604C68022C01D0122CE3
:1003800013D1D40800EB8404A346D4F8209054077A
:100390004FEAD46A0EFA0AF629EA06090E6906FA45
:1003A0000AF646EA0906CBF8206004680E7924EACA
:1003B0000C0406F00306BE40264306604C68E400C9
:1003C0004CD5294C266846F480462660246822F0E5
:1003D000030604F480440094244C3444A446D4F826
:1003E00008489607370F0EFA07F6B443204EB0427E
:1003F00001D100260BE01F4EB04201D1012606E0DC
:100400001D4EB04202D1022601E027E00726BE4081
:100410002643CCF80868194E34684F689C43FF03A4
:1004200000D51C433460154E361D34684F689C431C
:10043000BF0300D51C433460104E083634684F6843
:100440009C43FF0200D51C4334600C4E0C363468CC
:100450004F689C43BF0200D51C433460521C102AD5
:10046000FFF45EAFBDE8F88F443802400030014031
:10047000000002400004024000080240003C01402D
:100480000AB1816170470904FBE7000001488068F8
:100490007047000000000020024881680278114483
:1004A00081607047000000200B4810B5016841F4DE
:1004B00000710160016841F480610160016841F4EC
:1004C00080710160032000F061F8002000F006F860
:1004D00000F024F8002010BD003C024070B50D4D26
:1004E00004464FF47A712878B1FBF0F00A490968A4
:1004F000B1FBF0F000F0D8FA48B9102C07D2002276
:100500002146501E00F022F800206C6070BD0120D2
:1005100070BD0000000000200C0000200A4808B553
:10052000016841F480410160006800F4804000905F
:100530000548001F016841F080510160006800F02B
:100540008050009008BD000044380240F0B40E4BCB
:100550001B680C46C3F30223C3F10705042D00D921
:100560000425191D072901D2002300E0DB1E012606
:1005700006FA05F1491E214099409E40761E16401C
:100580003143F0BC00F069BD0CED00E0064900F01D
:10059000070208684FF6FF03184040EA0220034AAA
:1005A00010430860704700000CED00E00000FA0501
:1005B0002DE9F0470E46050065D0DFF81481D8F824
:1005C0000000F7B200F00F00B04207D288F80070C8
:1005D000D8F8000000F00F00B04254D128683D4C1C
:1005E000810712D5400703D5206840F4E050206011
:1005F0002878000703D5206840F460402060206818
:10060000A96820F0F000084320602878C0072DD0AA
:10061000304968680839012812D0022813D003280D
:1006200011D00968890700292DDA216821F003011A
:1006300001432160FFF72AFF814641F2883A0EE02C
:1006400009688903EFE709688901ECE7FFF71EFFF6
:10065000A0EB0901514502D90320BDE8F0872068CD
:10066000696800F00C00B0EB810FEFD1D8F80010F2
:10067000404601F00F01B14207D90770006800F051
:100680000F00B04201D00120E7E72878400705D5E8
:100690002068E96820F4E0500843206028780007CB
:1006A00006D52068296920F4604040EAC100206036
:1006B00000F038F82168084AC1F30311515CC840C2
:1006C0000649086006480068FFF708FF0020C4E7F5
:1006D000003C024008380240581100080C0000207D
:1006E000040000200448054900680968044AC1F371
:1006F0008221515CC84070470C000020083802403D
:10070000681100080448054900680968044AC1F3F3
:100710004231515CC84070470C000020083802404C
:1007200068110008154810B5006810F00C02144854
:1007300013D04110042A0FD0082A0ED10F4C241FC9
:100740002268236802F03F025B0207D52068C0F3ED
:100750008810A0FB010106E0084610BD2168C1F326
:100760008811A1FB00010023FFF74AFD2168C1F3B6
:100770000141491C4900B0FBF1F010BD08380240AE
:100780000024F4002DE9F84F05460078DFF800B3A7
:10079000C04CC0074AD0DBF800105846C1F38101B5
:1007A000012908D00068C0F3810002280AD1201D69
:1007B0000068400206D52068800337D568680028A5
:1007C00072D033E06868B0F5803F10D0B0F5A02F4C
:1007D000206810D020F480302060206820F4802031
:1007E00020606868A8B1FFF751FE06460DE020685A
:1007F00040F48030F4E740F480202060F7E700BF49
:10080000FFF744FE801B64286FD820688003F7D56B
:100810000CE0FFF73BFE064605E000BFFFF736FEA3
:10082000801B6428F0D820688003F7D42878DFF88C
:10083000688280074FF0000940D5DBF80010584669
:1008400011F00C0F09D00068C0F3810002280BD111
:100850008F48001F0068400206D42068800715D525
:10086000E868012820D111E0E868B8B10120C8F893
:100870000000FFF70BFE064605E000BFFFF706FE8F
:10088000801B0228C0D820688007F7D52068296916
:1008900020F0F80040EAC10020600FE0C8F80090A6
:1008A000FFF7F4FD064606E0EFE000BFFFF7EEFDC0
:1008B000801B022819D820688007F7D42878000701
:1008C00022D5734E754869696C3679B10121016092
:1008D000FFF7DCFD074604E0FFF7D8FDC01B022848
:1008E00003D830688007F7D50EE089E0C0F80090A3
:1008F000FFF7CCFD074604E0FFF7C8FDC01B022848
:100900007ED830688007F7D42878400768D5DFF8AC
:1009100080A100270AF1380ADAF80000C0000BD4E1
:10092000DAF8001041F08051CAF80010DAF800003F
:10093000012700F080500090594E3068C00510D457
:10094000306840F480703060FFF7A0FD009005E053
:10095000FFF79CFD0099401A022851D83068C00565
:10096000F6D54B4EA868683601280FD005283068A8
:1009700010D020F001003060306820F004003060BA
:10098000A868B8B1FFF782FD00900FE0306840F032
:100990000100F4E740F004003060F7E7FFF776FD70
:1009A0000099411A41F28830814266D83068800748
:1009B000F4D50EE0FFF76AFD009007E0FFF766FD53
:1009C0000099411A41F28830814256D83068800738
:1009D000F4D42FB1DAF8001021F08051CAF80010D9
:1009E000A869D0B3DBF80010C1F3810102294CD013
:1009F0000228484607D0C8F86000FFF747FD00E02E
:100A00003BE005463CE04746C8F86000FFF73EFD86
:100A1000064604E0FFF73AFD801B02282DD8206827
:100A20008001F7D4F5E907010843E9681D4A490840
:100A300002EB0141AA6841EA82110843297C40EA9D
:100A40000160297D40EA01711148001F0160012009
:100A50003866FFF71BFD054605E014E0FFF716FDBD
:100A6000401B022809D820688001F7D50BE000BFA1
:100A7000FFF70CFD401B022802D90320BDE8F88FC8
:100A800020688001F4D40020F8E70120F6E7000098
:100A9000083802400038024000004742800E4742BA
:100AA000007000400000FFFF10B5401EB0F1807FD5
:100AB00001D3012010BD4FF0E02460610F216017C9
:100AC00000F0CBFA0020A06107202061002010BDBB
:100AD00070B5040004D094F83900002510B106E088
:100AE000012070BD84F83850204600F023F82420FF
:100AF00084F839002068C16821F40051C1602046A3
:100B000000F0E4F92068016921F490410161206856
:100B1000416921F02A0141612068C16841F4005116
:100B2000C160E563202084F8390084F83A00002091
:100B300070BD0000F0B587B0044614216846FFF789
:100B400097FB2D49DFF8ACC027682B4A14390223E4
:100B50000124032507262948674511D1176847F066
:100B600010071760126802F0100205920A6842F03E
:100B700001020A60096801F001010591690216E0AD
:100B8000DFF87CC0674519D11B4A121F176847F46C
:100B900000371760126802F4003205920A6842F0CA
:100BA00001020A60096801F0010105910C218DE83C
:100BB0007A006946FFF7ACFB07B0F0BD11488742E9
:100BC000FAD1106840F020001060106800F020009A
:100BD0000590086840F0040008600868694600F065
:100BE00004000590C0208DE83900082004900648D4
:100BF000E0E70000001001404438024000000240DD
:100C00000044004000140140000802402DE9F84370
:100C1000044690F83A00994616460D46202852D1CF
:100C2000BDB1B6B194F8380001284CD0012084F849
:100C300038000027E763222084F83A002C34FFF7BD
:100C400025FC24F8026B804624F80A6B04F83879F6
:100C500031E00120BDE8F883E08D401EE085A0680A
:100C60004346B0F5805F4FF000024FF02001204670
:100C7000CDF8009004D000F0BDF998B10320E9E769
:100C800000F0B8F90028F9D12069002820684068F0
:100C900003D0C1B225F8011B0DE0C0F3080125F80F
:100CA000021B08E0206900282068406801D000F09D
:100CB0007F0005F8010BE08D0028CDD1202084F8BD
:100CC0003A000020C6E70220C4E72DE9F8430446B5
:100CD00090F839001F4616460D46202850D1B5B170
:100CE000AEB194F8380001284AD0012084F83800C9
:100CF0004FF00008C4F83C80212084F83900FFF749
:100D0000C5FBA6848146E68484F8388026E001206D
:100D1000BDE8F883E08C401EE084A0684B46B0F547
:100D2000805F4FF000024FF080012046009703D013
:100D300000F060F9E8B90DE000F05CF9C8B9288866
:100D40002168C0F308004860206908B16D1C05E007
:100D5000AD1C03E0216815F8010B4860E08C002809
:100D6000D8D14B46002240212046009700F042F99E
:100D700008B10320CCE7202084F839000020C7E721
:100D80000220C5E7FEE7000030B587B014216846B1
:100D9000FFF76EFA1E480024016841F0040101606B
:100DA000016801F004010591016841F080010160D2
:100DB000016801F080010591016841F001010160C5
:100DC000016801F001010591016841F00201016033
:100DD0000068104D00F002000590002220212846F6
:100DE000FFF74EFB4FF4005000900B48CDE9010493
:100DF00069460A48FFF78CFA202000900120CDE9CF
:100E00000104694628460394FFF782FA07B030BD13
:100E1000303802400000024000002110000802406B
:100E2000FEE7704770477047FFF736BB30B593B0A9
:100E300034216846FFF71CFA14210DA8FFF718FAB1
:100E400019480025016841F080510160006800F0F8
:100E5000805012901548016841F4404101600068DB
:100E6000022400F4404012900120039010200094CE
:100E700006940490CDE907504FF4A870099004201F
:100E80000A90CDE90B046846FFF77CFC0DA90F2002
:100E900081E83100E002CDE9100502210DA8FFF73D
:100EA00087FB13B030BD00004038024000700040A6
:100EB0000548016841F47001016003494FF000608A
:100EC000803908607047000088ED00E02DE9F041AE
:100ED000044600680169E26821F440511143016150
:100EE0002169A068E26908436169114308432168E8
:100EF000CA6849F20C639A430243CA602068416998
:100F0000A26921F4407111434161E0691927642508
:100F10003226B0F5004F354A354920684FF00008B9
:100F200006D0884201D0904236D1FFF7EBFB35E086
:100F3000884201D0904202D1FFF7E4FB01E0FFF7C5
:100F4000D1FB61684A18A0FB070148EB0803FFF7D3
:100F500057F90146B0FBF5F00201B1FBF5F06FF077
:100F60001803584301EB800006EBC000B0FBF5F01E
:100F700000F0F80002EB4002B1FBF5F0584301EB42
:100F8000800006EBC000B0FBF5F000F00700216820
:100F900010448860BDE8F081FFF7A4FB61688B0F07
:100FA0008A00A0FB0701FFF72BF90146B0FBF5F023
:100FB0006FF01802504301EB800006EB0010B0FB0D
:100FC000F5F000F0F002B1FBF5F002EB0012B1FB1E
:100FD000F5F06FF01803584301EB800006EB0010AA
:100FE000B0FBF5F000F00F00D1E700000014014065
:100FF000001001402DE9F041984617460E46044680
:10100000069D1DE0681C1BD02DB1FFF73FFAA0EB39
:101010000800A84214D92068C16821F4D071C160C9
:101020002068416921F001014161202084F83900E4
:1010300084F83A00002084F838000320BDE8F081ED
:101040002068006836EA000004D00020B842D9D0F9
:101050000020F3E70120F9E7FEE70907090E002861
:1010600004DB00F1E02080F80014704700F00F006E
:1010700000F1E02080F8141D704702E008C8121F3C
:1010800008C1002AFAD170477047002001E001C171
:10109000121F002AFBD170471FB5FFF705FAFFF7B3
:1010A000C5FEFFF771FE1D481B494FF4E1350024D2
:1010B0000160C0E901540C26C460C0E904468461A3
:1010C000C461FFF705FD1548154940300160C0E9CE
:1010D0000154C460C0E904468461C461FFF7F8FCB0
:1010E0000E48104980300160C0E90154C460C0E975
:1010F00004468461C461FFF7EBFC002220210A480A
:10110000FFF7BEF94FF4FA746946044800F00EF890
:101110002046FFF7EBF8F7E7001001401000002031
:1011200000440040001401400000024038B505466C
:1011300008A00C460068012300901A46694628461C
:10114000FFF7C3FD0223042221462846FFF75EFD78
:1011500038BD00003000000000000000000000006A
:10116000010203040607080900000000010203044D
:101170009011000800000020100000007A10000804
:10118000A011000810000020C00400008A10000810
:101190000100000010000000000000000024F40026
:04000005080001C925
:00000001FF
