:020000040800F2
:1000000000300020114000083D3B0008493B00083B
:100010004F3B0008553B00085B3B00080000000018
:10002000000000000000000000000000613B00082C
:100030006D3B000800000000793B0008853B00088C
:10004000614000086140000861400008614000080C
:100050006140000861400008913B00089F3B000898
:1000600061400008614000086140000861400008EC
:1000700061400008614000086140000861400008DC
:1000800061400008614000086140000861400008CC
:1000900061400008614000086140000861400008BC
:1000A00061400008614000086140000861400008AC
:1000B0006140000861400008000000006140000845
:1000C00061400008000000000000000061400008DE
:1000D0000000000061400008614000086140000825
:1000E00061400008614000080000000000000000BE
:1000F0000000000000000000000000000000000000
:1001000000000000000000000000000000000000EF
:10011000000000000000000061400008614000088D
:1001200000000000000000000000000000000000CF
:1001300000000000000000000000000000000000BF
:10014000614000086140000800000000000000005D
:10015000000000000000000000000000000000009F
:10016000000000000000000000000000000000008F
:10017000000000000000000000000000000000007F
:080180000000000061400008CE
:10018800044B05481B1A062B02D9044B03B1184728
:10019800704700BF0F0000200C0000200000000086
:1001A80005490648091A891001EBD171491002D096
:1001B800034B03B1184770470C0000200C000020C7
:1001C8000000000010B5064C237843B9FFF7D8FFAC
:1001D800044B13B10448AFF300800123237010BD12
:1001E8000C000020000000006440000808B5084B1F
:1001F8001BB108490848AFF300800848036813B9E1
:10020800BDE80840CCE7064B002BF9D09847F7E744
:100218000000000010000020644000080C000020CE
:100228000000000070B50F4E0F4D761BB61018BFBA
:10023800002405D0013455F8043B9847A642F9D16B
:100248000A4E0B4D761B03F009FFB61018BF0024A9
:1002580006D0013455F8043B9847A642F9D170BD41
:1002680070BD00BFB4400008B4400008B8400008A2
:10027800B440000870B4860746D0541E002A41D006
:10028800CAB2034602E014F1FF343BD303F8012B52
:100298009D07F8D1032C2ED9CDB245EA05250F2CA0
:1002A80045EA054519D903F110022646103E0F2EDE
:1002B80042F8105C42F80C5C42F8085C42F8045CB6
:1002C80002F11002F2D8A4F1100222F00F0204F099
:1002D8000F041032032C13440DD91E462246043A4B
:1002E800032A46F8045BFAD8221F22F003020432DC
:1002F800134404F003042CB1C9B21C4403F8011BD5
:100308009C42FBD170BC704714460346C2E700BF4D
:1003180080B500AF084A084B1B6843F01003136010
:10032800032000F043F9002000F008F803F0E0FB98
:100338000023184680BD00BF0020024080B582B06F
:1003480000AF7860124B1A68124B1B7819464FF4AD
:100358007A73B3FBF1F3B2FBF3F3184600F05BF9E1
:100368000346002B01D001230EE07B680F2B0AD82F
:10037800002279684FF0FF3000F023F9064A7B68C5
:100388001360002300E0012318460837BD4680BDEE
:1003980008000020040000200000002080B400AF06
:1003A800054B1B781A46054B1B681344034A136018
:1003B80000BFBD4680BC7047040000202800002014
:1003C80080B400AF024B1B681846BD4680BC70471E
:1003D8002800002080B584B000AF7860FFF7F0FFF8
:1003E800B8607B68FB60FB68B3F1FF3F05D0094B41
:1003F8001B781A46FB681344FB6000BFFFF7E0FF59
:100408000246BB68D21AFB689A42F7D300BF10377E
:10041800BD4680BD0400002080B485B000AF786080
:100428007B6803F00703FB600C4BDB68BB60BA68B2
:100438004FF6FF031340BB60FB681A02BB68134307
:1004480043F0BF6343F40033BB60044ABB68D36026
:1004580000BF1437BD4680BC704700BF00ED00E008
:1004680080B400AF044BDB681B0A03F0070318468F
:10047800BD4680BC704700BF00ED00E080B483B08B
:1004880000AF0346FB7197F90730002B0BDB0849D7
:1004980097F907305B09FA7902F01F02012000FA88
:1004A80002F241F8232000BF0C37BD4680BC7047DC
:1004B80000E100E080B483B000AF03463960FB710F
:1004C80097F90730002B0ADB0D4997F907303A688E
:1004D800D2B21201D2B20B4483F800230AE00949D0
:1004E800FB7903F00F03043B3A68D2B21201D2B28F
:1004F8000B441A7600BF0C37BD4680BC704700BF5E
:1005080000E100E000ED00E080B489B000AFF860E1
:10051800B9607A60FB6803F00703FB61FB69C3F10C
:100528000703042B28BF0423BB61FB690433062B94
:1005380002D9FB69033B00E000237B610122BB6910
:1005480002FA03F35A1EBB681A407B699A400121DC
:100558007B6901FA03F3591E7B680B401343184665
:100568002437BD4680BC704780B582B000AF786044
:100578007B68013BB3F1807F01D301230FE00A4A76
:100588007B68013B53600F214FF0FF30FFF792FF6C
:10059800054B00229A60044B07221A600023184674
:1005A8000837BD4680BD00BF10E000E080B582B0CE
:1005B80000AF78607868FFF72FFF00BF0837BD46A7
:1005C80080BD80B586B000AF0346B9607A60FB7322
:1005D80000237B61FFF744FF78617A68B96878691E
:1005E800FFF792FF024697F90F3011461846FFF7BA
:1005F80061FF00BF1837BD4680BD80B582B000AF2F
:100608000346FB7197F907301846FFF737FF00BF1D
:100618000837BD4680BD80B582B000AF7860786885
:10062800FFF7A2FF034618460837BD4680BD000005
:1006380080B487B000AF7860396000237B614EE1F9
:100648003B681A6801217B6901FA03F31340FB60D8
:10065800FB68002B00F040813B685B68022B03D0ED
:100668003B685B68122B23D17B69DA087B68083208
:1006780053F822303B617B6903F007039B000F228C
:1006880002FA03F3DB433A6913403B613B681A699A
:100698007B6903F007039B0002FA03F33A691343EB
:1006A8003B617B69DA087B680832396943F82210B4
:1006B8007B681B683B617B695B00032202FA03F3DA
:1006C800DB433A6913403B613B685B6803F0030214
:1006D8007B695B0002FA03F33A6913433B617B6869
:1006E8003A691A603B685B68012B0BD03B685B6812
:1006F800022B07D03B685B68112B03D03B685B6813
:10070800122B30D17B689B683B617B695B000322BD
:1007180002FA03F3DB433A6913403B613B68DA684A
:100728007B695B0002FA03F33A6913433B617B6818
:100738003A699A607B685B683B6101227B6902FACF
:1007480003F3DB433A6913403B613B685B681B0971
:1007580003F001027B6902FA03F33A6913433B6130
:100768007B683A695A607B68DB683B617B695B0040
:10077800032202FA03F3DB433A6913403B613B6807
:100788009A687B695B0002FA03F33A6913433B6199
:100798007B683A69DA603B685B6803F08053002B3A
:1007A80000F09A80544A544B9B6943F001039361CB
:1007B800514B9B6903F00103BB60BB684F4A7B69DF
:1007C8009B08023352F823303B617B6903F0030333
:1007D8009B000F2202FA03F3DB433A6913403B61A3
:1007E8007B68B3F1904F13D07B68454A93420DD094
:1007F8007B68444A934207D07B68434A934201D1BD
:10080800032306E0052304E0022302E0012300E0BD
:1008180000237A6902F00302920093403A69134375
:100828003B6136497B699B0802333A6941F82320CA
:10083800364B1B683B61FB68DB433A6913403B61FD
:100848003B685B6803F48033002B03D03A69FB688C
:1008580013433B612D4A3B6913602C4B5B683B613A
:10086800FB68DB433A6913403B613B685B6803F410
:100878000033002B03D03A69FB6813433B61234ADA
:100888003B695360214B9B683B61FB68DB433A69DA
:1008980013403B613B685B6803F48013002B03D073
:1008A8003A69FB6813433B61184A3B699360174BED
:1008B800DB683B61FB68DB433A6913403B613B689B
:1008C8005B6803F40013002B03D03A69FB681343F9
:1008D8003B610E4A3B69D3607B6901337B613B68AE
:1008E8001A687B6922FA03F3002B7FF4A9AE00BFD4
:1008F8001C37BD4680BC7047001002400000014014
:100908000004004800080048000C004800040140AA
:1009180080B483B000AF78600B467B8013467B7051
:100928007B78002B03D07A887B689A6102E07A880A
:100938007B689A6200BF0C37BD4680BC70470000D8
:1009480080B582B000AF0346FB80084B5A69FB882C
:100958001340002B06D0054AFB885361FB881846D4
:1009680000F006F800BF0837BD4680BD000401400E
:1009780080B483B000AF0346FB8000BF0C37BD4690
:1009880080BC704780B582B000AF78607B68002B70
:1009980001D1012380E07B6893F84130DBB2002B62
:1009A80006D17B68002283F84020786802F044FF73
:1009B8007B68242283F841207B681B687A68126868
:1009C800126822F001021A607B681B687A68526814
:1009D80022F070621A617B681B687A6812689268F4
:1009E80022F400429A607B68DB68012B07D17B68A0
:1009F8001B687A68926842F400429A6006E07B6855
:100A08001B687A68926842F404429A607B68DB68E3
:100A1800022B04D17B681B684FF400625A607B6824
:100A28001A687B681B685B6843F0007343F40043F3
:100A380053607B681B687A681268D26822F40042A7
:100A4800DA607B681B687A6811697A6852691143B1
:100A58007A68926912020A43DA607B681B687A68CE
:100A6800D1697A68126A0A431A607B681B687A68D7
:100A78001268126842F001021A607B6800225A6408
:100A88007B68202283F841207B6800221A637B68F8
:100A9800002283F84220002318460837BD4680BD4F
:100AA80080B483B000AF786039607B6893F84130D8
:100AB800DBB2202B38D17B6893F84030012B01D171
:100AC800022332E07B68012283F840207B682422DD
:100AD80083F841207B681B687A681268126822F0E4
:100AE80001021A607B681B687A681268126822F42F
:100AF80080521A607B681B687A68126811683A68C5
:100B08000A431A607B681B687A681268126842F0A8
:100B180001021A607B68202283F841207B6800224A
:100B280083F84020002300E0022318460C37BD4616
:100B380080BC704780B485B000AF786039607B684E
:100B480093F84130DBB2202B39D17B6893F84030E1
:100B5800012B01D1022333E07B68012283F8402076
:100B68007B68242283F841207B681B687A681268B6
:100B7800126822F001021A607B681B681B68FB6020
:100B8800FB6823F47063FB603B681B02FA6813433D
:100B9800FB607B681B68FA681A607B681B687A6868
:100BA8001268126842F001021A607B68202283F8FA
:100BB80041207B68002283F84020002300E00223C4
:100BC80018461437BD4680BC7047000080B5ADF5A7
:100BD800007D00AF3B1D18603B1D1B68002B02D138
:100BE800012300F0F4BE3B1D1B681B6803F00103E2
:100BF800002B00F06A81B34B5B6803F00C03042BF5
:100C08000CD0B04B5B6803F00C03082B59D1AD4BEB
:100C18005B6803F48033B3F5803F52D14FF400335F
:100C2800C7F8F031D7F8F03193FAA3F3C7F8EC31ED
:100C3800D7F8EC31B3FA83F3DBB25B09DBB243F0EC
:100C48000103DBB2012B02D19E4B1B6815E04FF468
:100C58000033C7F8E831D7F8E83193FAA3F3C7F8B7
:100C6800E4314FF40033C7F8E031D7F8E03193FAB4
:100C7800A3F3C7F8DC31934B5B6A4FF40032C7F833
:100C8800D821D7F8D82192FAA2F2C7F8D421D7F8F8
:100C9800D421B2FA82F2D2B242F02002D2B202F0E9
:100CA8001F02012101FA02F21340002B00F00C810F
:100CB8003B1D1B685B68002B40F00681012300F098
:100CC80086BE3B1D1B685B68B3F5803F06D17D4A35
:100CD8007C4B1B6843F48033136030E03B1D1B687A
:100CE8005B68002B0CD1774A764B1B6823F4803362
:100CF8001360744A734B1B6823F4802313601EE04F
:100D08003B1D1B685B68B3F5A02F0CD16D4A6D4B7A
:100D18001B6843F4802313606A4A6A4B1B6843F4D8
:100D2800803313600BE0674A664B1B6823F48033FB
:100D38001360644A634B1B6823F480231360614982
:100D4800604BDB6A23F00F023B1D1B689B68134353
:100D5800CB623B1D1B685B68002B59D0FFF730FB4B
:100D6800C7F8F8010AE0FFF72BFB0246D7F8F8317D
:100D7800D31A642B02D9032300F029BE4FF40033A1
:100D8800C7F8D031D7F8D03193FAA3F3C7F8CC31EC
:100D9800D7F8CC31B3FA83F3DBB25B09DBB243F0AB
:100DA8000103DBB2012B02D1464B1B6815E04FF45F
:100DB8000033C7F8C831D7F8C83193FAA3F3C7F896
:100DC800C4314FF40033C7F8C031D7F8C03193FAB3
:100DD800A3F3C7F8BC313B4B5B6A4FF40032C7F84A
:100DE800B821D7F8B82192FAA2F2C7F8B421D7F8F7
:100DF800B421B2FA82F2D2B242F02002D2B202F0A8
:100E08001F02012101FA02F21340002BABD05CE073
:100E1800FFF7D6FAC7F8F8010AE0FFF7D1FA024659
:100E2800D7F8F831D31A642B02D9032300F0CFBDC9
:100E38004FF40033C7F8B031D7F8B03193FAA3F3C1
:100E4800C7F8AC31D7F8AC31B3FA83F3DBB25B093E
:100E5800DBB243F00103DBB2012B02D1194B1B6853
:100E680015E04FF40033C7F8A831D7F8A83193FA42
:100E7800A3F3C7F8A4314FF40033C7F8A031D7F86B
:100E8800A03193FAA3F3C7F89C310E4B5B6A4FF479
:100E98000032C7F89821D7F8982192FAA2F2C7F839
:100EA8009421D7F89421B2FA82F2D2B242F0200209
:100EB800D2B202F01F02012101FA02F21340002B04
:100EC800ABD102E00010024000BF3B1D1B681B684D
:100ED80003F00203002B00F06F81D04B5B6803F036
:100EE8000C03002B0BD0CD4B5B6803F00C03082BD5
:100EF8006CD1CA4B5B6803F48033002B66D10223A4
:100F0800C7F89031D7F8903193FAA3F3C7F88C312A
:100F1800D7F88C31B3FA83F3DBB25B09DBB243F069
:100F28000103DBB2012B02D1BC4B1B6813E0022387
:100F3800C7F88831D7F8883193FAA3F3C7F8843112
:100F48000223C7F88031D7F8803193FAA3F3C7F8A2
:100F58007C31B24B5B6A0222C7F87821D7F8782136
:100F680092FAA2F2C7F87421D7F87421B2FA82F281
:100F7800D2B242F02002D2B202F01F02012101FADD
:100F880002F21340002B07D03B1D1B681B69012B85
:100F980002D0012300F01BBDA048A04B1B6823F022
:100FA800F8023B1D1B685B69F821C7F87011D7F878
:100FB800701191FAA1F1C7F86C11D7F86C11B1FA58
:100FC80081F1C9B28B4013430360F5E03B1D1B68F8
:100FD8001B69002B00F085800123C7F86831D7F81A
:100FE800683193FAA3F3C7F86431D7F86431B3FAD8
:100FF80083F3DBB203F1845303F584139B001A4691
:1010080001231360FFF7DCF9C7F8F8010AE0FFF7DE
:10101800D7F90246D7F8F831D31A022B02D903239D
:1010280000F0D5BC0223C7F86031D7F8603193FAD5
:10103800A3F3C7F85C31D7F85C31B3FA83F3DBB2BA
:101048005B09DBB243F00103DBB2012B02D1734B26
:101058001B6813E00223C7F85831D7F8583193FAC0
:10106800A3F3C7F854310223C7F85031D7F85031E9
:1010780093FAA3F3C7F84C31684B5B6A0222C7F8AE
:101088004821D7F8482192FAA2F2C7F84421D7F8A4
:101098004421B2FA82F2D2B242F02002D2B202F075
:1010A8001F02012101FA02F21340002BAFD05B4866
:1010B8005A4B1B6823F0F8023B1D1B685B69F8213B
:1010C800C7F84011D7F8401191FAA1F1C7F83C11BF
:1010D800D7F83C11B1FA81F1C9B28B4013430360D0
:1010E8006AE00123C7F83831D7F8383193FAA3F307
:1010F800C7F83431D7F83431B3FA83F3DBB203F1EC
:10110800845303F584139B001A4600231360FFF7EA
:1011180057F9C7F8F8010AE0FFF752F90246D7F87D
:10112800F831D31A022B02D9032300F050BC022352
:10113800C7F83031D7F8303193FAA3F3C7F82C3118
:10114800D7F82C31B3FA83F3DBB25B09DBB243F097
:101158000103DBB2012B02D1304B1B6813E00223E1
:10116800C7F82831D7F8283193FAA3F3C7F8243100
:101178000223C7F82031D7F8203193FAA3F3C7F830
:101188001C31264B5B6A0222C7F81821D7F81821B0
:1011980092FAA2F2C7F81421D7F81421B2FA82F20F
:1011A800D2B242F02002D2B202F01F02012101FAAB
:1011B80002F21340002BAFD13B1D1B681B6803F0E4
:1011C8000803002B00F0DA803B1D1B689B69002B8D
:1011D80069D00123C7F81031D7F8103193FAA3F377
:1011E800C7F80C31D7F80C31B3FA83F3DBB21A46DF
:1011F8000B4B13449B001A4601231360FFF7E0F8DA
:10120800C7F8F8010EE0FFF7DBF80246D7F8F83127
:10121800D31A022B06D90323D9E300BF00100240DA
:10122800208190100223C7F80831D7F8083193FAC3
:10123800A3F3C7F8043107F5807302221A6007F593
:1012480080731B6893FAA3F207F1FC031A6007F195
:10125800F80302221A6007F1F8031B6893FAA3F255
:1012680007F1F4031A60A54B5A6A07F1F00302214B
:10127800196007F1F0031B6893FAA3F107F1EC0377
:10128800196007F1EC031B68B3FA83F3DBB243F090
:101298006003DBB203F01F03012101FA03F31340DB
:1012A800002BB0D06AE007F1E80301221A6007F1C9
:1012B800E8031B6893FAA3F207F1E4031A6007F145
:1012C800E4031B68B3FA83F3DBB21A468C4B13446E
:1012D8009B001A4600231360FFF772F8C7F8F8015D
:1012E80009E0FFF76DF80246D7F8F831D31A022B58
:1012F80001D903236BE307F1E00302221A6007F127
:10130800E0031B6893FAA3F207F1DC031A6007F104
:10131800D80302221A6007F1D8031B6893FAA3F2D4
:1013280007F1D4031A6007F1D00302221A6007F10B
:10133800D0031B6893FAA3F207F1CC031A606F4B32
:101348005A6A07F1C8030221196007F1C8031B682C
:1013580093FAA3F107F1C403196007F1C4031B68EA
:10136800B3FA83F3DBB243F06003DBB203F01F038D
:10137800012101FA03F31340002BB2D13B1D1B6876
:101388001B6803F00403002B00F05881002387F842
:10139800FF315A4BDB6903F08053002B12D1574AB7
:1013A800564BDB6943F08053D361544BDB6903F040
:1013B800805207F108031A6007F108031B6801232C
:1013C80087F8FF314F4B1B6803F48073002B1AD149
:1013D8004C4A4C4B1B6843F480731360FEF7F0FFD4
:1013E800C7F8F80109E0FEF7EBFF0246D7F8F83135
:1013F800D31A642B01D90323E9E2424B1B6803F497
:101408008073002BEFD03B1D1B68DB68012B06D1D6
:101418003A4A3A4B1B6A43F0010313622FE03B1D23
:101428001B68DB68002B0CD1344A344B1B6A23F051
:1014380001031362314A314B1B6A23F00403136220
:101448001DE03B1D1B68DB68052B0CD12B4A2B4B81
:101458001B6A43F004031362284A284B1B6A43F0B3
:10146800010313620BE0254A244B1B6A23F0010396
:101478001362224A214B1B6A23F0040313623B1DAB
:101488001B68DB68002B6BD0FEF79AFFC7F8F801E2
:101498000BE0FEF795FF0246D7F8F831D31A41F270
:1014A8008832934201D9032391E207F1C003022253
:1014B8001A6007F1C0031B6893FAA3F207F1BC0393
:1014C8001A6007F1B80302221A6007F1B8031B6813
:1014D80093FAA3F207F1B4031A6007F1B4031B6887
:1014E800B3FA83F3DBB25B09DBB243F00203DBB28E
:1014F800022B09D1014B1B6A14E000BF0010024007
:10150800208190100070004007F1B00302221A6099
:1015180007F1B0031B6893FAA3F207F1AC031A6052
:10152800BB4B5B6A07F1A8020221116007F1A80210
:10153800126892FAA2F107F1A402116007F1A4025D
:101548001268B2FA82F2D2B242F04002D2B202F08B
:101558001F02012101FA02F21340002B99D063E027
:10156800FEF72EFFC7F8F8010BE0FEF729FF024649
:10157800D7F8F831D31A41F28832934201D90323BC
:1015880025E207F1A00302221A6007F1A0031B68F5
:1015980093FAA3F207F19C031A6007F19803022259
:1015A8001A6007F198031B6893FAA3F207F19403F2
:1015B8001A6007F194031B68B3FA83F3DBB25B0983
:1015C800DBB243F00203DBB2022B02D1904B1B6A61
:1015D8000DE007F1900302221A6007F190031B68DF
:1015E80093FAA3F207F18C031A60894B5B6A07F13F
:1015F80088020221116007F18802126892FAA2F1AA
:1016080007F18402116007F184021268B2FA82F2CB
:10161800D2B242F04002D2B202F01F02012101FA16
:1016280002F21340002BA0D197F8FF31012B05D10E
:10163800774A774BDB6923F08053D3613B1D1B68E6
:10164800DB69002B00F0C281714B5B6803F00C036F
:10165800082B00F09C813B1D1B68DB69022B40F0C6
:10166800148107F180034FF080721A6007F180033C
:101678001B6893FAA3F207F17C031A6007F17C0355
:101688001B68B3FA83F3DBB203F1845303F58413C5
:101698009B001A4600231360FEF792FEC7F8F80174
:1016A80009E0FEF78DFE0246D7F8F831D31A022B6F
:1016B80001D903238BE107F178034FF000721A6018
:1016C80007F178031B6893FAA3F207F174031A6011
:1016D80007F174031B68B3FA83F3DBB25B09DBB26F
:1016E80043F00103DBB2012B02D1494B1B681BE01D
:1016F80007F170034FF000721A6007F170031B685E
:1017080093FAA3F207F16C031A6007F168034FF02C
:1017180000721A6007F168031B6893FAA3F207F1D5
:1017280064031A603A4B5B6A07F160024FF000717C
:10173800116007F16002126892FAA2F107F15C02E7
:10174800116007F15C021268B2FA82F2D2B242F07A
:101758002002D2B202F01F02012101FA02F2134064
:10176800002B9ED12A482A4B5B6823F474123B1D38
:101778001B68596A3B1D1B681B6A0B431343436074
:1017880007F158034FF080721A6007F158031B687D
:1017980093FAA3F207F154031A6007F154031B6884
:1017A800B3FA83F3DBB203F1845303F584139B008C
:1017B8001A4601231360FEF703FEC7F8F80109E093
:1017C800FEF7FEFD0246D7F8F831D31A022B01D9ED
:1017D8000323FCE007F150034FF000721A6007F191
:1017E80050031B6893FAA3F207F14C031A6007F140
:1017F8004C031B68B3FA83F3DBB25B09DBB243F03B
:101808000103DBB2012B05D1014B1B681EE000BFB1
:101818000010024007F148034FF000721A6007F108
:1018280048031B6893FAA3F207F144031A6007F10F
:1018380040034FF000721A6007F140031B6893FAE7
:10184800A3F207F13C031A60634B5B6A07F13802A5
:101858004FF00071116007F13802126892FAA2F194
:1018680007F13402116007F134021268B2FA82F209
:10187800D2B242F02002D2B202F01F02012101FAD4
:1018880002F21340002B9BD0A0E007F130034FF089
:1018980080721A6007F130031B6893FAA3F207F10C
:1018A8002C031A6007F12C031B68B3FA83F3DBB22D
:1018B80003F1845303F584139B001A460023136035
:1018C800FEF77EFDC7F8F80109E0FEF779FD02464C
:1018D800D7F8F831D31A022B01D9032377E007F19F
:1018E80028034FF000721A6007F128031B6893FA67
:1018F800A3F207F124031A6007F124031B68B3FA63
:1019080083F3DBB25B09DBB243F00103DBB2012BEB
:1019180002D1314B1B681BE007F120034FF0007226
:101928001A6007F120031B6893FAA3F207F11C035E
:101938001A6007F118034FF000721A6007F11803D4
:101948001B6893FAA3F207F114031A60224B5B6A2F
:1019580007F110024FF00071116007F110021268D0
:1019680092FAA2F107F10C02116007F10C02126859
:10197800B2FA82F2D2B242F02002D2B202F01F02D0
:10198800012101FA02F21340002B9ED11EE03B1DFB
:101998001B68DB69012B01D1012318E00E4B5B6842
:1019A800C7F8F431D7F8F43103F480323B1D1B68D3
:1019B8001B6A9A4208D1D7F8F43103F470123B1D20
:1019C8001B685B6A9A4201D0012300E00023184695
:1019D80007F50077BD4680BD0010024080B59EB077
:1019E80000AF7860396000237B677B68002B01D1EA
:1019F800012362E1904B1B6803F007023B689A429F
:101A080010D28D498C4B1B6823F007023B681343A7
:101A18000B60894B1B6803F007023B689A4201D0B0
:101A280001234AE17B681B6803F00203002B08D0FE
:101A38008249824B5B6823F0F0027B689B68134302
:101A48004B607B681B6803F00103002B00F0DC800F
:101A58007B685B68012B3CD14FF400333B673B6FDD
:101A680093FAA3F3FB66FB6EB3FA83F3DBB25B096D
:101A7800DBB243F00103DBB2012B02D16F4B1B68D1
:101A88000FE04FF40033BB66BB6E93FAA3F37B669B
:101A98004FF400333B663B6E93FAA3F3FB65674B49
:101AA8005B6A4FF40032BA65BA6D92FAA2F27A65AF
:101AB8007A6DB2FA82F2D2B242F02002D2B202F0C9
:101AC8001F02012101FA02F21340002B7BD10123EE
:101AD800F3E07B685B68022B3CD14FF000733B65F9
:101AE8003B6D93FAA3F3FB64FB6CB3FA83F3DBB2AD
:101AF8005B09DBB243F00103DBB2012B02D14F4B90
:101B08001B680FE04FF00073BB64BB6C93FAA3F340
:101B18007B644FF000733B643B6C93FAA3F3FB6365
:101B2800464B5B6A4FF00072BA63BA6B92FAA2F244
:101B38007A637A6BB2FA82F2D2B242F02002D2B25F
:101B480002F01F02012101FA02F21340002B3AD1E0
:101B58000123B2E002233B633B6B93FAA3F3FB62DE
:101B6800FB6AB3FA83F3DBB25B09DBB243F0010330
:101B7800DBB2012B02D1314B1B680DE00223BB62A3
:101B8800BB6A93FAA3F37B6202233B623B6A93FA34
:101B9800A3F3FB61294B5B6A0222BA61BA6992FA24
:101BA800A2F27A617A69B2FA82F2D2B242F02002E3
:101BB800D2B202F01F02012101FA02F21340002BF7
:101BC80001D1012379E01D491C4B5B6823F0030216
:101BD8007B685B6813434B60FEF7F2FB78670AE0AB
:101BE800FEF7EEFB02467B6FD31A41F2883293422E
:101BF80001D9032361E0114B5B6803F00C027B6899
:101C08005B689B009A42EBD10B4B1B6803F0070201
:101C18003B689A4214D90849074B1B6823F007020E
:101C28003B6813430B60044B1B6803F007023B68D7
:101C38009A4205D0012340E00020024000100240F3
:101C48007B681B6803F00403002B08D01D491D4B5B
:101C58005B6823F4E0627B68DB6813434B607B6856
:101C68001B6803F00803002B09D01649154B5B6865
:101C780023F460527B681B69DB0013434B6000F060
:101C880029F801460F4B5B6803F0F003F0223A6134
:101C98003A6992FAA2F2FA60FA68B2FA82F2D2B219
:101CA800D340094AD35C21FA03F3084A1360084B6E
:101CB8001B681846FEF742FB002318467837BD46D6
:101CC80080BD00BF001002409C40000808000020B2
:101CD8000000002080B48BB000AF0023FB6100231C
:101CE800BB6100237B6200237B6100233B62284B9E
:101CF8005B68FB61FB6903F00C03042B02D0082B23
:101D080003D03CE0234B3B623CE0FB6903F47013D7
:101D18004FF47012BA60BA6892FAA2F27A607A68DE
:101D2800B2FA82F2D2B2D3401B4AD35C7B61184B21
:101D3800DB6A03F00F030F223A613A6992FAA2F2C2
:101D4800FA60FA68B2FA82F2D2B2D340134AD35C8C
:101D5800BB61FB6903F48033002B08D00D4ABB69D3
:101D6800B2FBF3F37A6902FB03F37B6204E07B695D
:101D78000B4A02FB03F37B627B6A3B6202E0054B82
:101D88003B6200BF3B6A18462C37BD4680BC704793
:101D98000010024000127A007C4000088C400008C5
:101DA80000093D0080B400AF024B1B681846BD46D1
:101DB80080BC70470800002080B582B000AFFFF7F4
:101DC800F1FF01460B4B5B6803F4E0634FF4E062FC
:101DD8007A607A6892FAA2F23A603A68B2FA82F2C3
:101DE800D2B2D340044AD35C21FA03F31846083729
:101DF800BD4680BD00100240AC40000880B582B0EE
:101E080000AFFFF7CFFF01460B4B5B6803F460534D
:101E18004FF460527A607A6892FAA2F23A603A68AD
:101E2800B2FA82F2D2B2D340044AD35C21FA03F365
:101E380018460837BD4680BD00100240AC40000877
:101E480080B592B000AF786000233B640023FB6349
:101E58007B681B6803F48033002B00F0D0800023DC
:101E680087F84730864BDB6903F08053002B0ED18F
:101E7800834A834BDB6943F08053D361804BDB6932
:101E880003F08053BB60BB68012387F847307D4B64
:101E98001B6803F48073002B18D17A4A794B1B68AE
:101EA80043F480731360FEF78BFA386408E0FEF79A
:101EB80087FA02463B6CD31A642B01D90323DBE073
:101EC800704B1B6803F48073002BF0D06C4B1B6ABB
:101ED80003F44073FB63FB6B002B7DD07B685B686E
:101EE80003F44072FB6B9A4276D0654B1B6A23F46D
:101EF8004073FB634FF480333B633B6B93FAA3F36C
:101F0800FB62FB6AB3FA83F3DBB21A465E4B1344F7
:101F18009B001A46012313604FF48033BB63BB6BED
:101F280093FAA3F37B637B6BB3FA83F3DBB21A46B2
:101F3800554B13449B001A4600231360504AFB6B11
:101F48001362FB6B03F00103002B45D0FEF738FA50
:101F580038640AE0FEF734FA02463B6CD31A41F2C1
:101F68008832934201D9032386E00223BB62BB6A0D
:101F780093FAA3F37B6202233B623B6A93FAA3F3CF
:101F8800FB61FB69B3FA83F3DBB25B09DBB243F0B5
:101F98000203DBB2022B02D1394B1B6A07E0022392
:101FA800BB61BB6993FAA3F37B61354B5B6A022281
:101FB8003A613A6992FAA2F2FA60FA68B2FA82F2DF
:101FC800D2B242F04002D2B202F01F02012101FA5D
:101FD80002F21340002BBDD02949294B1B6A23F478
:101FE80040727B685B6813430B6297F84730012B9C
:101FF80005D1234A224BDB6923F08053D3617B68E8
:102008001B6803F00103002B08D01D491C4B1B6BF8
:1020180023F003027B689B6813430B637B681B6890
:1020280003F02003002B08D01549154B1B6B23F038
:1020380010027B68DB6813430B637B681B6803F043
:102048008003002B08D00E490D4BDB6A23F4F8728D
:102058007B681B691343CB627B681B6803F480535E
:10206800002B08D00649064B1B6B23F480727B6853
:102078005B6913430B63002318464837BD4680BD90
:1020880000100240007000400081901080B584B0BC
:1020980000AF78607B68002B01D101237AE07B6870
:1020A80000229A627B6893F85D30DBB2002B06D180
:1020B8007B68002283F85C20786801F0D7FC7B6895
:1020C800022283F85D207B681B687A6812681268B0
:1020D80022F040021A607B68DB68B3F5E06F02D932
:1020E8000023FB6002E04FF48053FB607B68DB68F1
:1020F800B3F5706F07D07B68DB68B3F5E06F02D08B
:102108007B6800229A627B681B6B002B0BD17B6873
:10211800DB68B3F5E06F03D97B6802221A6302E03B
:102128007B6801221A637B681B687A6851687A6841
:10213800926811437A68126911437A6852691143A7
:102148007A68926902F4007211437A68D26911437D
:102158007A68126A11437A68926A0A431A607B683D
:102168001B687A689269120C02F004017A68526A54
:1021780011437A68526B11437A68D2681143FA683E
:102188000A435A607B6800221A667B68012283F83A
:102198005D20002318461037BD4680BD80B582B04B
:1021A80000AF78607B68002B01D101231DE07B68BC
:1021B80093F83D30DBB2002B06D17B68002283F810
:1021C8003C20786801F016FE7B68022283F83D20E7
:1021D8007B681A687B6804331946104600F062FA77
:1021E8007B68012283F83D20002318460837BD4646
:1021F80080BD80B582B000AF78607B68002B01D1CC
:1022080001231DE07B6893F83D30DBB2002B06D13B
:102218007B68002283F83C20786800F015F87B681A
:10222800022283F83D207B681A687B6804331946CC
:10223800104600F037FA7B68012283F83D2000231E
:1022480018460837BD4680BD80B483B000AF7860BB
:1022580000BF0C37BD4680BC7047000080B584B015
:1022680000AF786039607B681B68012239681846BE
:1022780000F0C4FD7B681B681C4A93420ED07B6843
:102288001B681B4A934209D07B681B68194A934212
:1022980004D07B681B68184A934201D1012300E0EF
:1022A8000023002B07D07B681B687A681268526C81
:1022B80042F400425A647B681B689A680F4B1340CB
:1022C800FB60FB68062B0BD0FB68B3F5803F07D09B
:1022D8007B681B687A681268126842F001021A600B
:1022E800002318461037BD4680BD00BF002C0140B2
:1022F800004001400044014000480140070001003F
:1023080080B584B000AFF860B9607A60FB6893F874
:102318003C30012B01D1022305E1FB68012283F83F
:102328003C20FB68022283F83D207B68142B00F2D6
:10233800F08001A252F823F0952300081B2500081D
:102348001B2500081B250008D52300081B250008AD
:102358001B2500081B250008172400081B2500085A
:102368001B2500081B250008572400081B2500080A
:102378001B2500081B250008992400081B250008B8
:102388001B2500081B250008D9240008FB681B68CA
:10239800B968184600F0FCF9FB681B68FA6812680F
:1023A800926942F008029A61FB681B68FA68126831
:1023B800926922F004029A61FB681B68FA68126845
:1023C8009169BA6812690A439A61A3E0FB681B68BD
:1023D800B968184600F062FAFB681B68FA68126868
:1023E800926942F400629A61FB681B68FA68126895
:1023F800926922F480629A61FB681B68FA68126825
:102408009169BA68126912020A439A6182E0FB680C
:102418001B68B968184600F0BFFAFB681B68FA68C1
:102428001268D26942F00802DA61FB681B68FA6830
:102438001268D26922F00402DA61FB681B68FA6844
:102448001268D169BA6812690A43DA6162E0FB6806
:102458001B68B968184600F01DFBFB681B68FA6822
:102468001268D26942F40062DA61FB681B68FA6894
:102478001268D26922F48062DA61FB681B68FA6824
:102488001268D169BA68126912020A43DA6141E036
:10249800FB681B68B968184600F05EFBFB681B68A0
:1024A800FA681268526D42F008025A65FB681B68A8
:1024B800FA681268526D22F004025A65FB681B68BC
:1024C800FA681268516DBA6812690A435A6521E0C0
:1024D800FB681B68B968184600F09CFBFB681B6822
:1024E800FA681268526D42F400625A65FB681B680C
:1024F800FA681268526D22F480625A65FB681B689C
:10250800FA681268516DBA68126912020A435A656C
:1025180000E000BFFB68012283F83D20FB68002231
:1025280083F83C20002318461037BD4680BD00BF05
:1025380080B584B000AF786039607B6893F83C3030
:10254800012B01D10223A8E07B68012283F83C20FB
:102558007B68022283F83D207B681B689B68FB60D0
:10256800FB6823F4803323F07703FB60FB6823F4D4
:102578007F43FB607B681B68FA689A603B681B684E
:10258800402B67D0402B0BD8102B73D0102B02D8C0
:10259800002B6FD078E0202B6CD0302B6AD073E002
:1025A800702B0DD0702B04D8502B33D0602B41D01A
:1025B8006AE0B3F5805F66D0B3F5005F17D063E0DB
:1025C8007B6818683B6899683B685A683B68DB68B1
:1025D80000F0F5FB7B681B689B68FB60FB6843F0B9
:1025E8007703FB607B681B68FA689A604CE07B683D
:1025F80018683B6899683B685A683B68DB6800F074
:10260800DEFB7B681B687A681268926842F4804235
:102618009A6039E07B6818683B6859683B68DB68F2
:102628001A4600F055FB7B681B685021184600F0DD
:10263800ACFB29E07B6818683B6859683B68DB6835
:102648001A4600F073FB7B681B686021184600F08F
:102658009CFB19E07B6818683B6859683B68DB6835
:102668001A4600F035FB7B681B684021184600F0CD
:102678008CFB09E07B681A683B681B6819461046A2
:1026880000F083FB00E000BF7B68012283F83D2057
:102698007B68002283F83C20002318461037BD468B
:1026A80080BD000080B485B000AF786039607B6879
:1026B8001B68FB607B68314A934207D07B68B3F1A3
:1026C800804F03D07B682E4A934208D1FB6823F0E1
:1026D8007003FB603B685B68FA681343FB607B68C8
:1026E800264A934213D07B68B3F1804F0FD07B68A2
:1026F800234A93420BD07B68224A934207D07B68D7
:10270800214A934203D07B68204A934208D1FB6850
:1027180023F44073FB603B68DB68FA681343FB6093
:10272800FB6823F080023B685B691343FB607B68AE
:10273800FA681A603B689A687B68DA623B681A68CC
:102748007B689A627B680D4A93420BD07B680D4A7E
:10275800934207D07B680C4A934203D07B680B4AAC
:10276800934203D13B681A697B681A637B6801222C
:102778005A6100BF1437BD4680BC7047002C014029
:10278800000400400040014000440140004801406E
:1027980080B487B000AF786039607B681B6A23F02B
:1027A80001027B681A627B681B6A7B617B685B68D5
:1027B8003B617B689B69FB60FB6823F4803323F0F3
:1027C8007003FB60FB6823F00303FB603B681B6836
:1027D800FA681343FB607B6923F002037B613B6863
:1027E8009B687A6913437B617B68284A93420BD0C4
:1027F8007B68274A934207D07B68264A934203D0D6
:102808007B68254A93420CD17B6923F008037B61DE
:102818003B68DB687A6913437B617B6923F00403B7
:102828007B617B68194A93420BD07B68184A9342B4
:1028380007D07B68174A934203D07B68164A9342B5
:1028480011D13B6923F480733B613B6923F4007326
:102858003B613B685B693A6913433B613B689B6931
:102868003A6913433B617B683A695A607B68FA6846
:102878009A613B685A687B685A637B687A691A620E
:1028880000BF1C37BD4680BC704700BF002C01400C
:1028980000400140004401400048014080B487B036
:1028A80000AF786039607B681B6A23F010027B6890
:1028B8001A627B681B6A7B617B685B683B617B682B
:1028C8009B69FB60FB6823F0807323F4E043FB60A3
:1028D800FB6823F44073FB603B681B681B02FA68C3
:1028E8001343FB607B6923F020037B613B689B6893
:1028F8001B017A6913437B617B68234A93420DD19C
:102908007B6923F080037B613B68DB681B017A6984
:1029180013437B617B6923F040037B617B681A4A20
:1029280093420BD07B68194A934207D07B68184AB8
:10293800934203D07B68174A934213D13B6923F42F
:1029480080633B613B6923F400633B613B685B69DF
:102958009B003A6913433B613B689B699B003A695A
:1029680013433B617B683A695A607B68FA689A61ED
:102978003B685A687B689A637B687A691A6200BF09
:102988001C37BD4680BC7047002C01400040014008
:10299800004401400048014080B487B000AF78602F
:1029A80039607B681B6A23F480727B681A627B68D3
:1029B8001B6A7B617B685B683B617B68DB69FB60EA
:1029C800FB6823F4803323F07003FB60FB6823F07B
:1029D8000303FB603B681B68FA681343FB607B6971
:1029E80023F400737B613B689B681B027A6913437D
:1029F8007B617B68234A93420DD17B6923F4006392
:102A08007B613B68DB681B027A6913437B617B69E6
:102A180023F480637B617B681A4A93420BD07B68FE
:102A2800194A934207D07B68184A934203D07B68BF
:102A3800174A934213D13B6923F480533B613B69A6
:102A480023F400533B613B685B691B013A691343FC
:102A58003B613B689B691B013A6913433B617B6897
:102A68003A695A607B68FA68DA613B685A687B6839
:102A7800DA637B687A691A6200BF1C37BD4680BC7E
:102A8800704700BF002C0140004001400044014055
:102A98000048014080B487B000AF786039607B6837
:102AA8001B6A23F480527B681A627B681B6A3B614D
:102AB8007B685B687B617B68DB69FB60FB6823F094
:102AC800807323F4E043FB60FB6823F44073FB60EE
:102AD8003B681B681B02FA681343FB603B6923F4DD
:102AE80000533B613B689B681B033A6913433B6196
:102AF8007B68154A93420BD07B68144A934207D0EF
:102B08007B68134A934203D07B68124A934209D1E7
:102B18007B6923F480437B613B685B699B017A692D
:102B280013437B617B687A695A607B68FA68DA616B
:102B38003B685A687B681A647B683A691A6200BF06
:102B48001C37BD4680BC7047002C01400040014046
:102B5800004401400048014080B487B000AF78606D
:102B680039607B681B6A23F480327B681A627B6851
:102B78001B6A3B617B685B687B617B685B6DFB60A4
:102B8800FB6823F4803323F07003FB603B681B6809
:102B9800FA681343FB603B6923F400333B613B68ED
:102BA8009B681B043A6913433B617B68154A93424F
:102BB8000BD07B68144A934207D07B68134A934230
:102BC80003D07B68124A934209D17B6923F480338E
:102BD8007B613B685B691B027A6913437B617B6895
:102BE8007A695A607B68FA685A653B685A687B68F4
:102BF8009A657B683A691A6200BF1C37BD4680BC7B
:102C0800704700BF002C01400040014000440140D3
:102C18000048014080B487B000AF786039607B68B5
:102C28001B6A23F480127B681A627B681B6A3B610B
:102C38007B685B687B617B685B6DFB60FB6823F08E
:102C4800807323F4E043FB603B681B681B02FA684F
:102C58001343FB603B6923F400133B613B689B68AB
:102C68001B053A6913433B617B68154A93420BD0B5
:102C78007B68144A934207D07B68134A934203D077
:102C88007B68124A934209D17B6923F480237B61D4
:102C98003B685B699B027A6913437B617B687A694D
:102CA8005A607B68FA685A653B685A687B68DA65D7
:102CB8007B683A691A6200BF1C37BD4680BC704702
:102CC800002C014000400140004401400048014000
:102CD80080B487B000AFF860B9607A60FB681B6A9F
:102CE8007B61FB681B6A23F00102FB681A62FB68C0
:102CF8009B693B613B6923F0F0033B617B681B01E7
:102D08003A6913433B617B6923F00A037B617A6963
:102D1800BB6813437B61FB683A699A61FB687A690F
:102D28001A6200BF1C37BD4680BC704780B487B0AC
:102D380000AFF860B9607A60FB681B6A23F0100284
:102D4800FB681A62FB689B697B61FB681B6A3B61D5
:102D58007B6923F470437B617B681B037A691343A7
:102D68007B613B6923F0A0033B61BB681B013A69A7
:102D780013433B61FB687A699A61FB683A691A6296
:102D880000BF1C37BD4680BC704780B485B000AF1B
:102D9800786039607B689B68FB60FB6823F0700390
:102DA800FB603A68FB68134343F00703FB607B68EA
:102DB800FA689A6000BF1437BD4680BC704780B47B
:102DC80087B000AFF860B9607A603B60FB689B68C9
:102DD8007B617B6923F47F437B613B681A027B68D4
:102DE8001A43BB6813437A6913437B61FB687A69AA
:102DF8009A6000BF1C37BD4680BC704780B487B05E
:102E080000AFF860B9607A60BB6803F01F03012265
:102E180002FA03F37B61FB681A6A7B69DB431A4099
:102E2800FB681A62FB681A6ABB6803F01F037968BB
:102E380001FA03F31A43FB681A6200BF1C37BD4648
:102E480080BC704780B485B000AF786039607B681B
:102E580093F83C30012B01D1022354E07B68012216
:102E680083F83C207B68022283F83D207B681B683E
:102E78005B68FB607B681B689B68BB607B681B6842
:102E8800234A934208D1FB6823F47003FB603B6834
:102E98005B68FA681343FB60FB6823F07003FB6010
:102EA8003B681B68FA681343FB607B681B68FA6819
:102EB8005A607B681B68164A93420ED07B681B6871
:102EC800B3F1804F09D07B681B68124A934204D043
:102ED8007B681B68104A93420CD1BB6823F08003BF
:102EE800BB603B689B68BA681343BB607B681B6820
:102EF800BA689A607B68012283F83D207B680022CB
:102F080083F83C20002318461437BD4680BC704720
:102F1800002C0140000400400040014080B485B00E
:102F280000AF786039600023FB607B6893F83C3021
:102F3800012B01D1022360E07B68012283F83C2049
:102F4800FB6823F0FF023B68DB681343FB60FB6808
:102F580023F440723B689B681343FB60FB6823F4CF
:102F680080623B685B681343FB60FB6823F4006284
:102F78003B681B681343FB60FB6823F480523B6883
:102F88001B691343FB60FB6823F400523B685B69D1
:102F98001343FB60FB6823F480423B689B6A13433E
:102FA800FB60FB6823F470223B689B691B04134396
:102FB800FB607B681B68134A934215D1FB6823F4B6
:102FC80070023B685B6A1B051343FB60FB6823F0D8
:102FD80080723B68DB691343FB60FB6823F0007277
:102FE8003B681B6A1343FB607B681B68FA685A647A
:102FF8007B68002283F83C20002318461437BD461E
:1030080080BC7047002C014080B582B000AF78606A
:103018007B68002B01D1012340E07B685B6F002BAC
:1030280006D17B68002283F87020786800F0AAFF38
:103038007B6824225A677B681B687A681268126862
:1030480022F001021A60786800F02CF80346012B80
:1030580001D1012322E07B685B6A002B02D07868EB
:1030680000F0A2F97B681B687A681268526822F43B
:1030780090425A607B681B687A681268926822F0EE
:103088002A029A607B681B687A681268126842F0A4
:1030980001021A60786800F028FA034618460837D3
:1030A800BD4680BD80B588B000AF78600023BB61A5
:1030B8000023FB757B689A687B681B691A437B68E9
:1030C8005B691A437B68DB6913433B617B681A6859
:1030D8007B681B681968A84B0B4039690B43136060
:1030E8007B681B687A681268526822F440517A68D3
:1030F800D2680A435A607B689B693B617B681B6A9C
:103108003A6913433B617B681B687A681268926866
:1031180022F430613A690A439A607B681B68974ACF
:10312800934221D1964B1B6B03F00303032B17D853
:1031380001A252F823F000BF513100085D310008A8
:1031480063310008573100080023FB771EE0022393
:10315800FB771BE00423FB7718E00823FB7715E0D7
:103168001023FB7700BF11E07B681B68854A9342F8
:1031780002D10023FB7709E07B681B68824A9342EF
:1031880002D10023FB7701E01023FB777B68DB6922
:10319800B3F5004F40F08280FB7F082B5ED801A278
:1031A80052F823F0D1310008F1310008113200083B
:1031B800653200082D3200086532000865320008C3
:1031C800653200084D320008FEF7F6FDF860FB682E
:1031D8005A007B685B685B081A447B685B68B2FBD3
:1031E800F3F39BB2BB613CE0FEF708FEF860FB68B6
:1031F8005A007B685B685B081A447B685B68B2FBB3
:10320800F3F39BB2BB612CE07B685B685B0803F55A
:10321800740303F510537A685268B3FBF2F39BB258
:10322800BB611EE0FEF756FDF860FB685A007B683C
:103238005B685B081A447B685B68B2FBF3F39BB27C
:10324800BB610EE07B685B685B0803F580327B68D6
:103258005B68B2FBF3F39BB2BB6102E00123FB7531
:1032680000BFBB690F2B16D9BB69B3F5803F12D2DB
:10327800BB699BB223F00F037B81BB695B089BB2E0
:1032880003F007039AB27B8913437B817B681B6831
:103298007A89DA607CE00123FB7579E0FB7F082BF3
:1032A8005BD801A252F823F0D5320008F3320008A7
:1032B80011330008633300082D3300086333000816
:1032C80063330008633300084B330008FEF774FDCE
:1032D800F8607B685B685A08FB681A447B685B681F
:1032E800B2FBF3F39BB2BB613AE0FEF787FDF860EF
:1032F8007B685B685A08FB681A447B685B68B2FBAA
:10330800F3F39BB2BB612BE07B685B685B0803F55A
:10331800F40303F590537A685268B3FBF2F39BB257
:10332800BB611DE0FEF7D6FCF8607B685B685A0855
:10333800FB681A447B685B68B2FBF3F39BB2BB6122
:103348000EE07B685B685B0803F500427B685B689E
:10335800B2FBF3F39BB2BB6102E00123FB7500BF34
:10336800BB690F2B12D9BB69B3F5803F0ED27B68BE
:103378001B68BA69DA600BE0F369FFEF00380140B7
:103388000010024000440040004800400123FB7543
:103398007B6800221A667B6800225A66FB7D184605
:1033A8002037BD4680BD00BF80B483B000AF7860D1
:1033B8007B685B6A03F00103002B0AD07B681B68FB
:1033C8007A681268526822F400317A68926A0A436D
:1033D8005A607B685B6A03F00203002B0AD07B68A3
:1033E8001B687A681268526822F480317A68D26A57
:1033F8000A435A607B685B6A03F00403002B0AD017
:103408007B681B687A681268526822F480217A689F
:10341800126B0A435A607B685B6A03F00803002B4F
:103428000AD07B681B687A681268526822F40041E7
:103438007A68526B0A435A607B685B6A03F0100330
:10344800002B0AD07B681B687A681268926822F49D
:1034580080517A68926B0A439A607B685B6A03F0D2
:103468002003002B0AD07B681B687A681268926870
:1034780022F400517A68D26B0A439A607B685B6ACF
:1034880003F04003002B1AD07B681B687A68126827
:10349800526822F480117A68126C0A435A607B6879
:1034A8001B6CB3F5801F0AD17B681B687A681268A9
:1034B800526822F4C0017A68526C0A435A607B68E9
:1034C8005B6A03F08003002B0AD07B681B687A686C
:1034D8001268526822F400217A68926C0A435A6092
:1034E80000BF0C37BD4680BC704780B586B002AFC0
:1034F80078607B680022DA67FCF762FFF8607B6817
:103508001B681B6803F00803082B0ED16FF07E437D
:103518000093FB6800224FF40011786800F02AF845
:103528000346002B01D0032320E07B681B681B683F
:1035380003F00403042B0ED16FF07E430093FB6865
:1035480000224FF48001786800F014F80346002B3D
:1035580001D003230AE07B6820225A677B68202277
:103568009A677B68002283F870200023184610377A
:10357800BD4680BD80B584B000AFF860B9603B60DF
:103588001346FB715DE0BB69B3F1FF3F59D0FCF70F
:1035980017FF02463B68D21ABB699A4202D8BB6938
:1035A800002B1BD1FB681B68FA681268126822F4AA
:1035B800D0721A60FB681B68FA681268926822F079
:1035C80001029A60FB6820225A67FB6820229A67EA
:1035D800FB68002283F87020032342E0FB681B6825
:1035E8001B6803F00403002B2BD0FB681B68DB6906
:1035F80003F40063B3F5006F23D1FB681B684FF435
:1036080000621A62FB681B68FA681268126822F482
:10361800D0721A60FB681B68FA681268926822F018
:1036280001029A60FB6820225A67FB6820229A6789
:10363800FB682022DA67FB68002283F870200323E6
:103648000FE0FB681B68DA69BB681A40BB689A42DE
:103658000CBF01230023DBB21A46FB799A4292D0B1
:10366800002318461037BD4680BD000080B588B0DD
:1036780000AF07F10C0300221A605A609A60DA6002
:103688001A61494A484B5B6943F480035361464BCE
:103698005B6903F48003BB60BB68434A424B5B69C8
:1036A80043F400335361404B5B6903F400337B60A0
:1036B8007B683D4A3C4B5B6943F4802353613A4B3A
:1036C8005B6903F480233B603B68002210214FF0C4
:1036D8009040FDF71DF9002210213448FDF718F934
:1036E8000223FB6000233B6100237B6107F10C038D
:1036F80019462F48FCF79CFF41F20343FB60002367
:103708003B6100237B6107F10C0319464FF09040A1
:10371800FCF78EFF1023FB6001233B6100237B61D4
:103728000023BB6107F10C0319464FF09040FCF7EA
:103738007FFF0323FB601F4B3B6100237B6107F185
:103748000C0319461948FCF773FF1023FB6001238B
:103758003B6100237B610023BB6107F10C03194621
:103768001248FCF765FF2023FB6000233B61002320
:103778007B6107F10C0319460C48FCF759FF00223E
:1037880001210620FCF71DFF0620FCF736FF00226A
:1037980001210720FCF715FF0720FCF72EFF00BFCB
:1037A8002037BD4680BD00BF00100240000400481D
:1037B800001400480000111080B500AF1B4B1C4AD4
:1037C8001A601A4B1B4A5A60184B00229A60174B12
:1037D8000122DA60154B00221A61144B00225A614B
:1037E800124B00229A61114B0022DA610F4B002222
:1037F8001A620E48FDF7C6F80346002B01D000F008
:10380800F0F800210948FDF74BF90346002B01D0D9
:1038180000F0E7F800210548FDF78CF90346002B76
:1038280001D000F0DEF800BF80BD00BF2C000020F2
:10383800005400400E09002080B58AB000AF7860BF
:1038480007F1140300221A605A609A60DA601A615C
:103858007B681B68174A934227D1174A164B5B6946
:1038680043F480235361144B5B6903F480233B6169
:103878003B69C0237B611223BB610123FB610323E6
:103888003B6204237B6207F1140319460B48FCF7DB
:10389800CFFE094A084BDB6943F40013D361064B9A
:1038A800DB6903F40013FB60FB6800BF2837BD46E3
:1038B80080BD00BF005400400010024000040048D2
:1038C80080B582B000AFFCF723FD00F02FF8FFF7BA
:1038D800CDFE00F073F900F025FBFFF76DFF00F057
:1038E80087F800F03BFA00210F48FEF7B7FC0421E7
:1038F8000D48FEF7B3FC08210B48FEF7AFFC0C217E
:103908000948FEF7ABFC00237B6009E0064B1B6807
:103918007A685A636420FCF75DFD7B6801337B603D
:103928007B68632BF2DDEEE7DC00002080B596B003
:1039380000AF07F13003282200211846FCF79AFC53
:1039480007F11C0300221A605A609A60DA601A6153
:103958003B1D00221A605A609A60DA601A615A6147
:1039680002233B6301233B6410237B640223FB6433
:1039780000233B654FF400237B6507F130031846AD
:10398800FDF724F90346002B01D000F02AF80F2395
:10399800FB6102233B6280237B624FF48063BB623E
:1039A8000023FB6207F11C0300211846FEF716F8F6
:1039B8000346002B01D000F014F84FF481537B60CC
:1039C80000233B610023BB613B1D1846FEF738FA14
:1039D8000346002B01D000F004F800BF5837BD465D
:1039E80080BD80B400AF00BFBD4680BC70470000FA
:1039F80080B500AF1B4B1C4A1A601A4B4FF48272F9
:103A08005A60184B00229A60164B4FF4E062DA6055
:103A1800144B02221A61134B01225A61114B4FF4C5
:103A280000729A610F4B0822DA610E4B00221A626B
:103A38000C4B00225A620B4B00229A62094B072258
:103A4800DA62084B00221A63064B00225A630548C3
:103A5800FEF71CFB0346002B01D0FFF7C2FF00BF97
:103A680080BD00BF780000200030014080B58AB0DA
:103A780000AF786007F1140300221A605A609A6058
:103A8800DA601A617B681B68174A934228D1174A83
:103A9800164B9B6943F480539361144B9B6903F461
:103AA80080533B613B69114A104B5B6943F4003317
:103AB80053610E4B5B6903F40033FB60FB68E02342
:103AC8007B610223BB610023FB6103233B62052367
:103AD8007B6207F1140319464FF09040FCF7A8FDEC
:103AE80000BF2837BD4680BD0030014000100240AD
:103AF80080B483B000AF0E4A0D4B9B6943F00103BD
:103B080093610B4B9B6903F001037B607B68084A58
:103B1800074BDB6943F08053D361054BDB6903F046
:103B280080533B603B6800BF0C37BD4680BC704784
:103B38000010024080B400AF00BFBD4680BC704793
:103B480080B400AFFEE780B400AFFEE780B400AFFA
:103B5800FEE780B400AFFEE780B400AF00BFBD460B
:103B680080BC704780B400AF00BFBD4680BC7047C2
:103B780080B400AF00BFBD4680BC704780B500AFC1
:103B8800FCF70CFC00BF80BD80B500AF0120FCF73E
:103B9800D7FE00BF80BD80B500AF0220FCF7D0FE85
:103BA80000BF80BD80B400AF034B4FF000629A6045
:103BB80000BFBD4680BC704700ED00E080B59AB0FC
:103BC80000AF07F1580300221A605A609A60DA6061
:103BD80007F14C0300221A605A609A6007F130031B
:103BE80000221A605A609A60DA601A615A619A6112
:103BF8003B1D2C2200211846FCF73CFB554B564A2E
:103C08001A60544B10225A60524B00229A60514B52
:103C18006422DA604F4B00221A614E4B00225A612F
:103C28004C4B00229A614B48FEF7B8FA0346002B2A
:103C380001D0FFF7D6FE4FF48053BB6507F1580358
:103C480019464448FEF774FC0346002B01D0FFF7E1
:103C5800C8FE4048FEF7CDFA0346002B01D0FFF717
:103C6800C0FE0023FB6400233B6500237B6507F14E
:103C78004C0319463748FFF7E5F80346002B01D0F7
:103C8800FFF7AFFE60233B6300237B630023BB6326
:103C98000023FB6300233B6400237B640023BB6495
:103CA80007F13003002219462A48FEF729FB03468C
:103CB800002B01D0FFF795FE07F1300304221946C7
:103CC8002448FEF71DFB0346002B01D0FFF789FEB1
:103CD80007F13003082219461E48FEF711FB034678
:103CE800002B01D0FFF77DFE07F130030C221946A7
:103CF8001848FEF705FB0346002B01D0FFF771FEBD
:103D080000237B600023BB600023FB6000233B6132
:103D180000237B614FF40053BB610023FB61002348
:103D28003B624FF000737B620023BB620023FB629F
:103D38003B1D19460748FFF7F1F80346002B01D051
:103D4800FFF74FFE034800F085F800BF6837BD460F
:103D580080BD00BFDC000020002C014080B588B089
:103D680000AF07F1100300221A605A609A60DA6007
:103D78003B1D00221A605A609A601D4B4FF080422A
:103D88001A601B4B10225A60194B00229A60184B7C
:103D98006422DA60164B00221A61154B00229A61E0
:103DA8001348FEF7FBF90346002B01D0FFF719FE75
:103DB8004FF480533B6107F1100319460C48FEF796
:103DC800B7FB0346002B01D0FFF70BFE00237B60F7
:103DD8000023FB603B1D19460548FFF733F80346EF
:103DE800002B01D0FFF7FDFD00BF2037BD4680BD89
:103DF8001C01002080B485B000AF78607B681B6828
:103E0800124A93420CD1124A114B9B6943F4006346
:103E180093610F4B9B6903F40063FB60FB6810E040
:103E28007B681B68B3F1804F0BD1094A084BDB69EB
:103E380043F00103D361064BDB6903F00103BB6068
:103E4800BB6800BF1437BD4680BC7047002C0140DA
:103E58000010024080B58AB000AF786007F1140303
:103E680000221A605A609A60DA601A617B681B68DF
:103E7800294A93424BD1294A284B5B6943F4800372
:103E88005361264B5B6903F480033B613B69234A1A
:103E9800224B5B6943F400335361204B5B6903F4A5
:103EA8000033FB60FB6801237B610223BB610023B5
:103EB800FB6100233B6206237B6207F1140319466A
:103EC8001748FCF7B5FB4FF440737B610223BB61D5
:103ED8000023FB6100233B6206237B6207F1140386
:103EE80019464FF09040FCF7A3FB4FF400637B6149
:103EF8000223BB610023FB6100233B620B237B622F
:103F080007F1140319464FF09040FCF791FB00BFEE
:103F18002837BD4680BD00BF002C0140001002407C
:103F28000014004880B500AF144B154A1A60134BB3
:103F38004FF416425A60114B00229A600F4B002230
:103F4800DA600E4B00221A610C4B0C225A610B4BA3
:103F580000229A61094B0022DA61084B00221A629A
:103F6800064B00225A620548FFF74EF80346002B1D
:103F780001D0FFF736FD00BF80BD00BF5C01002007
:103F88000044004080B58AB000AF786007F11403A0
:103F980000221A605A609A60DA601A617B681B68AE
:103FA800174A934228D1174A164BDB6943F400336A
:103FB800D361144BDB6903F400333B613B69114A5D
:103FC800104B5B6943F4003353610E4B5B6903F498
:103FD8000033FB60FB680C237B610223BB61002379
:103FE800FB6103233B6207237B6207F11403194635
:103FF8004FF09040FCF71CFB00BF2837BD4680BD42
:104008000044004000100240DFF834D0002103E0F3
:104018000C4B5B58435004310B480C4B42189A42E6
:10402800F6D30B4A02E0002342F8043B094B9A42BC
:10403800F9D3FFF7B7FDFCF7F5F8FFF741FCFEE70A
:1040480000300020BC400008000000200C000020C8
:104058000C000020DC010020FEE70000F8B500BFDE
:10406800F8BC08BC9E467047F8B500BFF8BC08BC51
:044078009E467047A9
:10407C0002030405060708090A0B0C0D0E0F10109D
:10408C000102030405060708090A0B0C0D0E0F109C
:10409C0000000000000000000102030406070809EC
:0840AC00000000000102030402
:0440B400F50100080A
:0440B800CD0100082E
:0C40BC00100000000100000000127A005B
:04000005080040119E
:00000001FF
